:020000020000FC
:02000000FFC03F
:020040003EC1BF
:0200540035C1B4
:0200280052C1C3
:020034004EC1BB
:1000A0001E1E1E1E28425A718796A00048656C6C61
:0A00B0006F2C20576F726C64210D55
:10020000F89435D03AD022D052D046D003D00FD077
:100210007894FFCF00E00093C50007E60093C40088
:1002200008E00093C10006E00093C2000895ACEA24
:10023000B0E0FD01659103D06D30E1F708950091C4
:10024000C00005FFFCCF6093C60008950FEF009338
:100250007E0000E600937C000FEE00937A0004E03D
:1002600000937B0000917A000071E1F30895A0EA09
:10027000B0EACCEADCEAFD01089508E00AB903E23D
:100280000093B0000CE00093B10000E50093B300D0
:1002900008E20093B400089500270093800004E46E
:1002A0000093810001E200936F0044270895002726
:1002B00004BD05E005BD01E000936E0008951895AA
:1002C0003091790000E5039F1092B4001895439592
:1002D0001895742F442791E4970F032F06950695E0
:1002E0000695FD01E00F8491981B692FA8DF1895F2
:00000001FF
