S01600004D69644C6576656C54696D6572312E73726563CA
S11300000C9434000C9451000C9451000C94510045
S11300100C9451000C9451000C9451000C94510018
S11300200C9451000C9451000C9451000C94510008
S11300300C9451000C9453000C9451000C945100F6
S11300400C9451000C9451000C9451000C945100E8
S11300500C9451000C9451000C9451000C945100D8
S11300600C9451000C94510011241FBECFEFD8E022
S1130070DEBFCDBF11E0A0E0B1E0E4EFF0E002C0EC
S113008005900D92A230B107D9F721E0A2E0B1E0CA
S113009001C01D92A330B207E1F70E9465000C94E1
S11300A078000C9400001F920F920FB60F92112447
S11300B08F939F9395B180E2892785B99F918F9102
S11300C00F900FBE0F901F901895259A1092020161
S11300D0F894109280008091000180938100109226
S11300E085001092840081E080936F007894FFCFA4
S10700F0F894FFCFAE
S10500F4020004
S9030000FC
