:020000020000FC
:020000003FC0FF
:02004000C3C03B
:02005400C1C029
:10008000F89481E006D089D097D0B7D0789400C09A
:10009000FFCF239A229A219A209A579A08951127DE
:1000A000253061F0243089F02330A9F02230C1F0EE
:1000B0002130D1F02030D9F01FEF1BC01062106149
:1000C000186014601260116014C010611860146030
:1000D000126011600EC0186014601260116009C0D7
:1000E00014601260116005C01260116002C01160DE
:1000F00000C010952A9829982B9817FD2B9A299AB9
:1001000029982B9816FD2B9A299A29982B9815FD3A
:100110002B9A299A29982B9814FD2B9A299A299879
:100120002B9813FD2B9A299A29982B9812FD2B9A1C
:10013000299A29982B9811FD2B9A299A29982B985E
:1001400010FD2B9A299A29982B9887FD2B9A299A8A
:1001500029982B9886FD2B9A299A29982B9885FD0A
:100160002B9A299A29982B9884FD2B9A299A2998B9
:100170002B9883FD2B9A299A29982B9882FD2B9AEC
:10018000299A29982B9881FD2B9A299A29982B989E
:1001900080FD2B9A299A2A9A08950FEF00E6009382
:1001A0007C000FEE00937A0004E000937B00009146
:1001B0007A000071E1F30895002704BD02E005BD57
:1001C00001E000936E00089528981AD000917A00FB
:1001D000006400937A0018952091790046E0429FD0
:1001E000212D5DDF289A9395880F973009F0189597
:1001F0005F9A5F9881E0992718955F98289A0895EB
:0A02000055E75A95F1F70000089544
:00000001FF
