:020000020000FC
:02000000FFC03F
:0200400042C1BB
:0200540039C1B0
:0200280056C1BF
:0200340052C1B7
:0E00800048656C6C6F2C20576F726C64210DFC
:10020000F89439D03ED026D056D04AD003D00FD063
:100210007894FFCF00E00093C50007E60093C40088
:1002200008E00093C10006E00093C2000895A0E832
:10023000B0E0CEE8D0E0FD01659104D0EC1709F004
:10024000FBCF089561E40091C00005FDFBCF6093F2
:10025000C60008950FEF00937E0000E600937C0037
:100260000FEE00937A0004E000937B0000917A0087
:100270000071E1F30895A0E0B0E0CCE0DCE0FD0126
:10028000089508E00AB903E20093B0000CE000937F
:10029000B10000E50093B30008E20093B4000895B4
:1002A00000270093800004E40093810001E20093A2
:1002B0006F0044270895002704BD05E005BD01E057
:1002C00000936E00089518953091790000E5039F22
:1002D0001092B400189543951895542F44275695BD
:0202E00018956F
:00000001FF
